{
  "address": "0xF30f842F5844e4397dCab59cAAEAC3e825c803C6",
  "abi": [
    {
      "inputs": [
        {
          "internalType": "address",
          "name": "sellToken",
          "type": "address"
        },
        {
          "internalType": "address",
          "name": "buyToken",
          "type": "address"
        },
        {
          "internalType": "address",
          "name": "neuronPool",
          "type": "address"
        },
        {
          "internalType": "address",
          "name": "neuronGauge",
          "type": "address"
        },
        {
          "internalType": "uint256",
          "name": "amount",
          "type": "uint256"
        },
        {
          "internalType": "address payable",
          "name": "zapperContract",
          "type": "address"
        },
        {
          "internalType": "bytes",
          "name": "zapperCallData",
          "type": "bytes"
        }
      ],
      "name": "zapIn",
      "outputs": [
        {
          "internalType": "uint256",
          "name": "",
          "type": "uint256"
        }
      ],
      "stateMutability": "payable",
      "type": "function"
    },
    {
      "inputs": [
        {
          "internalType": "address",
          "name": "neuronPool",
          "type": "address"
        },
        {
          "internalType": "address",
          "name": "buyToken",
          "type": "address"
        },
        {
          "internalType": "address payable",
          "name": "zapperContract",
          "type": "address"
        },
        {
          "internalType": "bytes",
          "name": "zapperCallData",
          "type": "bytes"
        }
      ],
      "name": "zapOut",
      "outputs": [
        {
          "internalType": "uint256",
          "name": "tokensBought",
          "type": "uint256"
        }
      ],
      "stateMutability": "nonpayable",
      "type": "function"
    }
  ],
  "transactionHash": "0x138bac2669c6204ad764c4f9050939cefa87fc56c16d1cfc4f64ec98fbf1bccd",
  "args": [],
  "solcInputHash": "2e31722931c29993d86d1918e3dda806",
  "bytecode": "0x608060405234801561001057600080fd5b50610f87806100206000396000f3fe6080604052600436106100295760003560e01c80634e8453801461002e578063d11757f914610053575b600080fd5b61004161003c366004610dab565b610073565b60405190815260200160405180910390f35b34801561005f57600080fd5b5061004161006e366004610d31565b610462565b60006001600160a01b0389166100cb57600034116100c65760405162461bcd60e51b815260206004820152600b60248201526a139bc8195d1a081cd95b9d60aa1b60448201526064015b60405180910390fd5b610131565b341561010f5760405162461bcd60e51b815260206004820152601360248201527222ba341039b2b73a103bb4ba34103a37b5b2b760691b60448201526064016100bd565b6101246001600160a01b038a1633308861087e565b61013189856000196108ef565b6040516370a0823160e01b81523060048201526000906001600160a01b038a16906370a082319060240160206040518083038186803b15801561017357600080fd5b505afa158015610187573d6000803e3d6000fd5b505050506040513d601f19601f820116820180604052508101906101ab9190610e73565b9050600080866001600160a01b03163487876040516101cb929190610e8b565b60006040518083038185875af1925050503d8060008114610208576040519150601f19603f3d011682016040523d82523d6000602084013e61020d565b606091505b50915091508181906102325760405162461bcd60e51b81526004016100bd9190610eb7565b506040516370a0823160e01b81523060048201526000906102b99085906001600160a01b038f16906370a082319060240160206040518083038186803b15801561027b57600080fd5b505afa15801561028f573d6000803e3d6000fd5b505050506040513d601f19601f820116820180604052508101906102b39190610e73565b9061091d565b90506102c68c8c836108ef565b60405163b6b55f2560e01b8152600481018290526001600160a01b038c169063b6b55f2590602401600060405180830381600087803b15801561030857600080fd5b505af115801561031c573d6000803e3d6000fd5b50506040516370a0823160e01b8152306004820152600092506001600160a01b038e1691506370a082319060240160206040518083038186803b15801561036257600080fd5b505afa158015610376573d6000803e3d6000fd5b505050506040513d601f19601f8201168201806040525081019061039a9190610e73565b9050600081116103e45760405162461bcd60e51b8152602060048201526015602482015274139bc81c1bdbdb081d1bdad95b9cc81b5a5b9d1959605a1b60448201526064016100bd565b6103ef8c8c836108ef565b60405163a588154160e01b8152600481018290523360248201526001600160a01b038c169063a588154190604401600060405180830381600087803b15801561043757600080fd5b505af115801561044b573d6000803e3d6000fd5b509297505050505050505098975050505050505050565b6040516370a0823160e01b815233600482015260009081906001600160a01b038816906370a082319060240160206040518083038186803b1580156104a657600080fd5b505afa1580156104ba573d6000803e3d6000fd5b505050506040513d601f19601f820116820180604052508101906104de9190610e73565b90506000811161053b5760405162461bcd60e51b815260206004820152602260248201527f43616e2774207a6170207a65726f206e6575726f6e20706f6f6c2062616c616e604482015261636560f01b60648201526084016100bd565b6105506001600160a01b03881633308461087e565b604051632e1a7d4d60e01b8152600481018290526001600160a01b03881690632e1a7d4d90602401600060405180830381600087803b15801561059257600080fd5b505af11580156105a6573d6000803e3d6000fd5b505050506000876001600160a01b031663fc0c546a6040518163ffffffff1660e01b815260040160206040518083038186803b1580156105e557600080fd5b505afa1580156105f9573d6000803e3d6000fd5b505050506040513d601f19601f8201168201806040525081019061061d9190610d15565b6040516370a0823160e01b81523060048201529091506000906001600160a01b038316906370a082319060240160206040518083038186803b15801561066257600080fd5b505afa158015610676573d6000803e3d6000fd5b505050506040513d601f19601f8201168201806040525081019061069a9190610e73565b90506106a78288836108ef565b60006001600160a01b03891615610734576040516370a0823160e01b81523060048201526001600160a01b038a16906370a082319060240160206040518083038186803b1580156106f757600080fd5b505afa15801561070b573d6000803e3d6000fd5b505050506040513d601f19601f8201168201806040525081019061072f9190610e73565b610736565b475b9050600080896001600160a01b03168989604051610755929190610e8b565b6000604051808303816000865af19150503d8060008114610792576040519150601f19603f3d011682016040523d82523d6000602084013e610797565b606091505b50915091508181906107bc5760405162461bcd60e51b81526004016100bd9190610eb7565b5060006001600160a01b038c161561084a576040516370a0823160e01b81523060048201526001600160a01b038d16906370a082319060240160206040518083038186803b15801561080d57600080fd5b505afa158015610821573d6000803e3d6000fd5b505050506040513d601f19601f820116820180604052508101906108459190610e73565b61084c565b475b9050610858818561091d565b975061086e6001600160a01b038d16338a610930565b5050505050505095945050505050565b6040516001600160a01b03808516602483015283166044820152606481018290526108e99085906323b872dd60e01b906084015b60408051601f198184030181529190526020810180516001600160e01b03166001600160e01b031990931692909217909152610960565b50505050565b6109046001600160a01b038416836000610a32565b6109186001600160a01b0384168383610a32565b505050565b60006109298284610eea565b9392505050565b6040516001600160a01b03831660248201526044810182905261091890849063a9059cbb60e01b906064016108b2565b60006109b5826040518060400160405280602081526020017f5361666545524332303a206c6f772d6c6576656c2063616c6c206661696c6564815250856001600160a01b0316610b569092919063ffffffff16565b80519091501561091857808060200190518101906109d39190610e53565b6109185760405162461bcd60e51b815260206004820152602a60248201527f5361666545524332303a204552433230206f7065726174696f6e20646964206e6044820152691bdd081cdd58d8d9595960b21b60648201526084016100bd565b801580610abb5750604051636eb1769f60e11b81523060048201526001600160a01b03838116602483015284169063dd62ed3e9060440160206040518083038186803b158015610a8157600080fd5b505afa158015610a95573d6000803e3d6000fd5b505050506040513d601f19601f82011682018060405250810190610ab99190610e73565b155b610b265760405162461bcd60e51b815260206004820152603660248201527f5361666545524332303a20617070726f76652066726f6d206e6f6e2d7a65726f60448201527520746f206e6f6e2d7a65726f20616c6c6f77616e636560501b60648201526084016100bd565b6040516001600160a01b03831660248201526044810182905261091890849063095ea7b360e01b906064016108b2565b6060610b658484600085610b6d565b949350505050565b606082471015610bce5760405162461bcd60e51b815260206004820152602660248201527f416464726573733a20696e73756666696369656e742062616c616e636520666f6044820152651c8818d85b1b60d21b60648201526084016100bd565b843b610c1c5760405162461bcd60e51b815260206004820152601d60248201527f416464726573733a2063616c6c20746f206e6f6e2d636f6e747261637400000060448201526064016100bd565b600080866001600160a01b03168587604051610c389190610e9b565b60006040518083038185875af1925050503d8060008114610c75576040519150601f19603f3d011682016040523d82523d6000602084013e610c7a565b606091505b5091509150610c8a828286610c95565b979650505050505050565b60608315610ca4575081610929565b825115610cb45782518084602001fd5b8160405162461bcd60e51b81526004016100bd9190610eb7565b60008083601f840112610cdf578182fd5b50813567ffffffffffffffff811115610cf6578182fd5b602083019150836020828501011115610d0e57600080fd5b9250929050565b600060208284031215610d26578081fd5b815161092981610f39565b600080600080600060808688031215610d48578081fd5b8535610d5381610f39565b94506020860135610d6381610f39565b93506040860135610d7381610f39565b9250606086013567ffffffffffffffff811115610d8e578182fd5b610d9a88828901610cce565b969995985093965092949392505050565b60008060008060008060008060e0898b031215610dc6578283fd5b8835610dd181610f39565b97506020890135610de181610f39565b96506040890135610df181610f39565b95506060890135610e0181610f39565b94506080890135935060a0890135610e1881610f39565b925060c089013567ffffffffffffffff811115610e33578283fd5b610e3f8b828c01610cce565b999c989b5096995094979396929594505050565b600060208284031215610e64578081fd5b81518015158114610929578182fd5b600060208284031215610e84578081fd5b5051919050565b6000828483379101908152919050565b60008251610ead818460208701610f0d565b9190910192915050565b6000602082528251806020840152610ed6816040850160208701610f0d565b601f01601f19169190910160400192915050565b600082821015610f0857634e487b7160e01b81526011600452602481fd5b500390565b60005b83811015610f28578181015183820152602001610f10565b838111156108e95750506000910152565b6001600160a01b0381168114610f4e57600080fd5b5056fea2646970667358221220b982b3120f70350552347c90ab3b58e32530ab8f04b005ac8cdd6044a8c18c4364736f6c63430008020033",
  "devdoc": {
    "kind": "dev",
    "methods": {},
    "version": 1
  },
  "userdoc": {
    "kind": "user",
    "methods": {},
    "version": 1
  },
  "storageLayout": {
    "storage": [
      {
        "astId": 5,
        "contract": "contracts/NeuronZap.sol:NeuronZap",
        "label": "_initialized",
        "offset": 0,
        "slot": "0",
        "type": "t_bool"
      },
      {
        "astId": 8,
        "contract": "contracts/NeuronZap.sol:NeuronZap",
        "label": "_initializing",
        "offset": 1,
        "slot": "0",
        "type": "t_bool"
      }
    ],
    "types": {
      "t_bool": {
        "encoding": "inplace",
        "label": "bool",
        "numberOfBytes": "1"
      }
    }
  }
}